{
  "_format": "hh-sol-artifact-1",
  "contractName": "BankMechanism",
  "sourceName": "contracts/Bank_Mechanism.sol",
  "abi": [
    {
      "inputs": [],
      "stateMutability": "nonpayable",
      "type": "constructor"
    },
    {
      "inputs": [],
      "name": "checkBalanceByAccountOwner",
      "outputs": [
        {
          "internalType": "uint256",
          "name": "",
          "type": "uint256"
        }
      ],
      "stateMutability": "view",
      "type": "function"
    },
    {
      "inputs": [
        {
          "internalType": "address",
          "name": "accountOwner",
          "type": "address"
        }
      ],
      "name": "checkBalanceByContractOwner",
      "outputs": [
        {
          "internalType": "uint256",
          "name": "",
          "type": "uint256"
        }
      ],
      "stateMutability": "view",
      "type": "function"
    },
    {
      "inputs": [],
      "name": "deposit",
      "outputs": [
        {
          "internalType": "uint256",
          "name": "",
          "type": "uint256"
        }
      ],
      "stateMutability": "payable",
      "type": "function"
    },
    {
      "inputs": [],
      "name": "openAccount",
      "outputs": [],
      "stateMutability": "payable",
      "type": "function"
    },
    {
      "inputs": [
        {
          "internalType": "address payable",
          "name": "recipient",
          "type": "address"
        }
      ],
      "name": "transfer",
      "outputs": [
        {
          "internalType": "bool",
          "name": "",
          "type": "bool"
        }
      ],
      "stateMutability": "payable",
      "type": "function"
    }
  ],
  "bytecode": "0x608060405234801561001057600080fd5b50336000806101000a81548173ffffffffffffffffffffffffffffffffffffffff021916908373ffffffffffffffffffffffffffffffffffffffff16021790555066071afd498d0000600381905550610b308061006e6000396000f3fe60806040526004361061004a5760003560e01c80631a6952301461004f578063292eb75d1461007f5780639ecf239c14610089578063ccf38e17146100c6578063d0e30db0146100f1575b600080fd5b6100696004803603810190610064919061072e565b61010f565b6040516100769190610776565b60405180910390f35b610087610314565b005b34801561009557600080fd5b506100b060048036038101906100ab91906107cf565b6103f7565b6040516100bd9190610815565b60405180910390f35b3480156100d257600080fd5b506100db6104cf565b6040516100e89190610815565b60405180910390f35b6100f96105a2565b6040516101069190610815565b60405180910390f35b6000600260003373ffffffffffffffffffffffffffffffffffffffff1673ffffffffffffffffffffffffffffffffffffffff16815260200190815260200160002060009054906101000a900460ff1661019d576040517f08c379a0000000000000000000000000000000000000000000000000000000008152600401610194906108b3565b60405180910390fd5b34600160003373ffffffffffffffffffffffffffffffffffffffff1673ffffffffffffffffffffffffffffffffffffffff168152602001908152602001600020541161021e576040517f08c379a000000000000000000000000000000000000000000000000000000000815260040161021590610945565b60405180910390fd5b600160003373ffffffffffffffffffffffffffffffffffffffff1673ffffffffffffffffffffffffffffffffffffffff16815260200190815260200160002054341161030a578173ffffffffffffffffffffffffffffffffffffffff166108fc349081150290604051600060405180830381858888f193505050501580156102aa573d6000803e3d6000fd5b5034600160003373ffffffffffffffffffffffffffffffffffffffff1673ffffffffffffffffffffffffffffffffffffffff16815260200190815260200160002060008282546102fa9190610994565b925050819055506001905061030f565b600090505b919050565b600354341015610359576040517f08c379a000000000000000000000000000000000000000000000000000000000815260040161035090610a14565b60405180910390fd5b34600160003373ffffffffffffffffffffffffffffffffffffffff1673ffffffffffffffffffffffffffffffffffffffff168152602001908152602001600020819055506001600260003373ffffffffffffffffffffffffffffffffffffffff1673ffffffffffffffffffffffffffffffffffffffff16815260200190815260200160002060006101000a81548160ff021916908315150217905550565b60008060009054906101000a900473ffffffffffffffffffffffffffffffffffffffff1673ffffffffffffffffffffffffffffffffffffffff163373ffffffffffffffffffffffffffffffffffffffff1614610488576040517f08c379a000000000000000000000000000000000000000000000000000000000815260040161047f90610aa6565b60405180910390fd5b600160008373ffffffffffffffffffffffffffffffffffffffff1673ffffffffffffffffffffffffffffffffffffffff168152602001908152602001600020549050919050565b6000600260003373ffffffffffffffffffffffffffffffffffffffff1673ffffffffffffffffffffffffffffffffffffffff16815260200190815260200160002060009054906101000a900460ff1661055d576040517f08c379a0000000000000000000000000000000000000000000000000000000008152600401610554906108b3565b60405180910390fd5b600160003373ffffffffffffffffffffffffffffffffffffffff1673ffffffffffffffffffffffffffffffffffffffff16815260200190815260200160002054905090565b6000600260003373ffffffffffffffffffffffffffffffffffffffff1673ffffffffffffffffffffffffffffffffffffffff16815260200190815260200160002060009054906101000a900460ff16610630576040517f08c379a0000000000000000000000000000000000000000000000000000000008152600401610627906108b3565b60405180910390fd5b34600160003373ffffffffffffffffffffffffffffffffffffffff1673ffffffffffffffffffffffffffffffffffffffff168152602001908152602001600020600082825461067f9190610ac6565b92505081905550600160003373ffffffffffffffffffffffffffffffffffffffff1673ffffffffffffffffffffffffffffffffffffffff16815260200190815260200160002054905090565b600080fd5b600073ffffffffffffffffffffffffffffffffffffffff82169050919050565b60006106fb826106d0565b9050919050565b61070b816106f0565b811461071657600080fd5b50565b60008135905061072881610702565b92915050565b600060208284031215610744576107436106cb565b5b600061075284828501610719565b91505092915050565b60008115159050919050565b6107708161075b565b82525050565b600060208201905061078b6000830184610767565b92915050565b600061079c826106d0565b9050919050565b6107ac81610791565b81146107b757600080fd5b50565b6000813590506107c9816107a3565b92915050565b6000602082840312156107e5576107e46106cb565b5b60006107f3848285016107ba565b91505092915050565b6000819050919050565b61080f816107fc565b82525050565b600060208201905061082a6000830184610806565b92915050565b600082825260208201905092915050565b7f4f6e6c7920617574686f7269736564206163636f756e74206f776e657273206360008201527f616e2063616c6c20746869732066756e6374696f6e0000000000000000000000602082015250565b600061089d603583610830565b91506108a882610841565b604082019050919050565b600060208201905081810360008301526108cc81610890565b9050919050565b7f496e73756666696369656e742062616c616e636520666f72207468697320747260008201527f616e73616374696f6e0000000000000000000000000000000000000000000000602082015250565b600061092f602983610830565b915061093a826108d3565b604082019050919050565b6000602082019050818103600083015261095e81610922565b9050919050565b7f4e487b7100000000000000000000000000000000000000000000000000000000600052601160045260246000fd5b600061099f826107fc565b91506109aa836107fc565b92508282039050818111156109c2576109c1610965565b5b92915050565b7f496e73756666696369656e74206f70656e696e672062616c616e636500000000600082015250565b60006109fe601c83610830565b9150610a09826109c8565b602082019050919050565b60006020820190508181036000830152610a2d816109f1565b9050919050565b7f4f6e6c7920746865206f776e65722063616e2063616c6c20746869732066756e60008201527f6374696f6e000000000000000000000000000000000000000000000000000000602082015250565b6000610a90602583610830565b9150610a9b82610a34565b604082019050919050565b60006020820190508181036000830152610abf81610a83565b9050919050565b6000610ad1826107fc565b9150610adc836107fc565b9250828201905080821115610af457610af3610965565b5b9291505056fea2646970667358221220ee845fb16d2de35b315dfa2ae0a86ba3fcc9ea581a27f6f1f6e09d75de8742b864736f6c63430008130033",
  "linkReferences": {},
  "deployedLinkReferences": {}
}