{
  "_format": "hh-sol-artifact-1",
  "contractName": "PollContract",
  "sourceName": "contracts/Poll_Contract.sol",
  "abi": [
    {
      "inputs": [],
      "stateMutability": "nonpayable",
      "type": "constructor"
    },
    {
      "inputs": [
        {
          "internalType": "address",
          "name": "pollCreator",
          "type": "address"
        },
        {
          "internalType": "bool",
          "name": "authorisation",
          "type": "bool"
        }
      ],
      "name": "authorisePollCreator",
      "outputs": [],
      "stateMutability": "nonpayable",
      "type": "function"
    },
    {
      "inputs": [
        {
          "internalType": "address",
          "name": "voter",
          "type": "address"
        },
        {
          "internalType": "bool",
          "name": "authorisation",
          "type": "bool"
        }
      ],
      "name": "authorisePollVoters",
      "outputs": [],
      "stateMutability": "nonpayable",
      "type": "function"
    },
    {
      "inputs": [
        {
          "internalType": "string",
          "name": "pollName",
          "type": "string"
        },
        {
          "internalType": "string",
          "name": "description",
          "type": "string"
        },
        {
          "internalType": "address[]",
          "name": "candidates",
          "type": "address[]"
        }
      ],
      "name": "createPoll",
      "outputs": [],
      "stateMutability": "nonpayable",
      "type": "function"
    },
    {
      "inputs": [
        {
          "internalType": "address",
          "name": "pollCreator",
          "type": "address"
        },
        {
          "internalType": "string",
          "name": "pollName",
          "type": "string"
        }
      ],
      "name": "getPollByCreator",
      "outputs": [
        {
          "components": [
            {
              "internalType": "string",
              "name": "name",
              "type": "string"
            },
            {
              "internalType": "string",
              "name": "description",
              "type": "string"
            },
            {
              "internalType": "address[]",
              "name": "candidates",
              "type": "address[]"
            },
            {
              "internalType": "uint256[]",
              "name": "votes",
              "type": "uint256[]"
            }
          ],
          "internalType": "struct PollContract.PollInfo",
          "name": "",
          "type": "tuple"
        }
      ],
      "stateMutability": "view",
      "type": "function"
    },
    {
      "inputs": [
        {
          "internalType": "address",
          "name": "pollOwner",
          "type": "address"
        },
        {
          "internalType": "string",
          "name": "pollName",
          "type": "string"
        }
      ],
      "name": "listCandidatesInAPoll",
      "outputs": [
        {
          "internalType": "address[]",
          "name": "",
          "type": "address[]"
        }
      ],
      "stateMutability": "view",
      "type": "function"
    },
    {
      "inputs": [
        {
          "internalType": "address",
          "name": "candidate",
          "type": "address"
        },
        {
          "internalType": "address",
          "name": "pollOwner",
          "type": "address"
        },
        {
          "internalType": "string",
          "name": "pollName",
          "type": "string"
        }
      ],
      "name": "voteCandidateInPoll",
      "outputs": [],
      "stateMutability": "nonpayable",
      "type": "function"
    }
  ],
  "bytecode": "0x608060405234801561001057600080fd5b50336000806101000a81548173ffffffffffffffffffffffffffffffffffffffff021916908373ffffffffffffffffffffffffffffffffffffffff160217905550611bb4806100606000396000f3fe608060405234801561001057600080fd5b50600436106100625760003560e01c80637095f81014610067578063734ca9ac14610083578063a710aa601461009f578063b33b7da0146100cf578063e55af17d146100eb578063f6a33fb21461011b575b600080fd5b610081600480360381019061007c9190610f5e565b610137565b005b61009d60048036038101906100989190611005565b6104c6565b005b6100b960048036038101906100b49190611045565b6105ad565b6040516100c6919061131e565b60405180910390f35b6100e960048036038101906100e49190611408565b6107a4565b005b61010560048036038101906101009190611045565b61096e565b604051610112919061151e565b60405180910390f35b61013560048036038101906101309190611005565b610b79565b005b81816000600360008473ffffffffffffffffffffffffffffffffffffffff1673ffffffffffffffffffffffffffffffffffffffff16815260200190815260200160002082604051610188919061157c565b908152602001604051809103902090506000805b8260030180549050811015610236573373ffffffffffffffffffffffffffffffffffffffff168360030182815481106101d8576101d7611593565b5b9060005260206000200160009054906101000a900473ffffffffffffffffffffffffffffffffffffffff1673ffffffffffffffffffffffffffffffffffffffff160361022357600191505b808061022e906115f1565b91505061019c565b508015610278576040517f08c379a000000000000000000000000000000000000000000000000000000000815260040161026f90611696565b60405180910390fd5b600260003373ffffffffffffffffffffffffffffffffffffffff1673ffffffffffffffffffffffffffffffffffffffff16815260200190815260200160002060009054906101000a900460ff16610304576040517f08c379a00000000000000000000000000000000000000000000000000000000081526004016102fb90611728565b60405180910390fd5b6000600360008873ffffffffffffffffffffffffffffffffffffffff1673ffffffffffffffffffffffffffffffffffffffff16815260200190815260200160002086604051610353919061157c565b908152602001604051809103902090506000805b8260010180549050811015610404578973ffffffffffffffffffffffffffffffffffffffff168360010182815481106103a3576103a2611593565b5b9060005260206000200160009054906101000a900473ffffffffffffffffffffffffffffffffffffffff1673ffffffffffffffffffffffffffffffffffffffff16036103f157809150610404565b80806103fc906115f1565b915050610367565b50600182600201828154811061041d5761041c611593565b5b90600052602060002001546104329190611748565b82600201828154811061044857610447611593565b5b906000526020600020018190555081600301339080600181540180825580915050600190039060005260206000200160009091909190916101000a81548173ffffffffffffffffffffffffffffffffffffffff021916908373ffffffffffffffffffffffffffffffffffffffff160217905550505050505050505050565b600160003373ffffffffffffffffffffffffffffffffffffffff1673ffffffffffffffffffffffffffffffffffffffff16815260200190815260200160002060009054906101000a900460ff16610552576040517f08c379a0000000000000000000000000000000000000000000000000000000008152600401610549906117ee565b60405180910390fd5b80600260008473ffffffffffffffffffffffffffffffffffffffff1673ffffffffffffffffffffffffffffffffffffffff16815260200190815260200160002060006101000a81548160ff0219169083151502179055505050565b6105b5610c62565b6000600360008573ffffffffffffffffffffffffffffffffffffffff1673ffffffffffffffffffffffffffffffffffffffff16815260200190815260200160002083604051610604919061157c565b9081526020016040518091039020905060405180608001604052808481526020018260000180546106349061183d565b80601f01602080910402602001604051908101604052809291908181526020018280546106609061183d565b80156106ad5780601f10610682576101008083540402835291602001916106ad565b820191906000526020600020905b81548152906001019060200180831161069057829003601f168201915b505050505081526020018260010180548060200260200160405190810160405280929190818152602001828054801561073b57602002820191906000526020600020905b8160009054906101000a900473ffffffffffffffffffffffffffffffffffffffff1673ffffffffffffffffffffffffffffffffffffffff16815260200190600101908083116106f1575b505050505081526020018260020180548060200260200160405190810160405280929190818152602001828054801561079357602002820191906000526020600020905b81548152602001906001019080831161077f575b505050505081525091505092915050565b600160003373ffffffffffffffffffffffffffffffffffffffff1673ffffffffffffffffffffffffffffffffffffffff16815260200190815260200160002060009054906101000a900460ff16610830576040517f08c379a0000000000000000000000000000000000000000000000000000000008152600401610827906117ee565b60405180910390fd5b610838610c8a565b828160000181905250818160200181905250815167ffffffffffffffff81111561086557610864610e33565b5b6040519080825280602002602001820160405280156108935781602001602082028036833780820191505090505b50816040018190525080600360003373ffffffffffffffffffffffffffffffffffffffff1673ffffffffffffffffffffffffffffffffffffffff168152602001908152602001600020856040516108ea919061157c565b9081526020016040518091039020600082015181600001908161090d9190611a1a565b50602082015181600101908051906020019061092a929190610cb2565b506040820151816002019080519060200190610947929190610d3c565b506060820151816003019080519060200190610964929190610cb2565b5090505050505050565b6060600160003373ffffffffffffffffffffffffffffffffffffffff1673ffffffffffffffffffffffffffffffffffffffff16815260200190815260200160002060009054906101000a900460ff166109fc576040517f08c379a00000000000000000000000000000000000000000000000000000000081526004016109f3906117ee565b60405180910390fd5b600260003373ffffffffffffffffffffffffffffffffffffffff1673ffffffffffffffffffffffffffffffffffffffff16815260200190815260200160002060009054906101000a900460ff16610a88576040517f08c379a0000000000000000000000000000000000000000000000000000000008152600401610a7f90611728565b60405180910390fd5b6000600360008573ffffffffffffffffffffffffffffffffffffffff1673ffffffffffffffffffffffffffffffffffffffff16815260200190815260200160002083604051610ad7919061157c565b9081526020016040518091039020905080600101805480602002602001604051908101604052809291908181526020018280548015610b6b57602002820191906000526020600020905b8160009054906101000a900473ffffffffffffffffffffffffffffffffffffffff1673ffffffffffffffffffffffffffffffffffffffff1681526020019060010190808311610b21575b505050505091505092915050565b60008054906101000a900473ffffffffffffffffffffffffffffffffffffffff1673ffffffffffffffffffffffffffffffffffffffff163373ffffffffffffffffffffffffffffffffffffffff1614610c07576040517f08c379a0000000000000000000000000000000000000000000000000000000008152600401610bfe90611b5e565b60405180910390fd5b80600160008473ffffffffffffffffffffffffffffffffffffffff1673ffffffffffffffffffffffffffffffffffffffff16815260200190815260200160002060006101000a81548160ff0219169083151502179055505050565b6040518060800160405280606081526020016060815260200160608152602001606081525090565b6040518060800160405280606081526020016060815260200160608152602001606081525090565b828054828255906000526020600020908101928215610d2b579160200282015b82811115610d2a5782518260006101000a81548173ffffffffffffffffffffffffffffffffffffffff021916908373ffffffffffffffffffffffffffffffffffffffff16021790555091602001919060010190610cd2565b5b509050610d389190610d89565b5090565b828054828255906000526020600020908101928215610d78579160200282015b82811115610d77578251825591602001919060010190610d5c565b5b509050610d859190610d89565b5090565b5b80821115610da2576000816000905550600101610d8a565b5090565b6000604051905090565b600080fd5b600080fd5b600073ffffffffffffffffffffffffffffffffffffffff82169050919050565b6000610de582610dba565b9050919050565b610df581610dda565b8114610e0057600080fd5b50565b600081359050610e1281610dec565b92915050565b600080fd5b600080fd5b6000601f19601f8301169050919050565b7f4e487b7100000000000000000000000000000000000000000000000000000000600052604160045260246000fd5b610e6b82610e22565b810181811067ffffffffffffffff82111715610e8a57610e89610e33565b5b80604052505050565b6000610e9d610da6565b9050610ea98282610e62565b919050565b600067ffffffffffffffff821115610ec957610ec8610e33565b5b610ed282610e22565b9050602081019050919050565b82818337600083830152505050565b6000610f01610efc84610eae565b610e93565b905082815260208101848484011115610f1d57610f1c610e1d565b5b610f28848285610edf565b509392505050565b600082601f830112610f4557610f44610e18565b5b8135610f55848260208601610eee565b91505092915050565b600080600060608486031215610f7757610f76610db0565b5b6000610f8586828701610e03565b9350506020610f9686828701610e03565b925050604084013567ffffffffffffffff811115610fb757610fb6610db5565b5b610fc386828701610f30565b9150509250925092565b60008115159050919050565b610fe281610fcd565b8114610fed57600080fd5b50565b600081359050610fff81610fd9565b92915050565b6000806040838503121561101c5761101b610db0565b5b600061102a85828601610e03565b925050602061103b85828601610ff0565b9150509250929050565b6000806040838503121561105c5761105b610db0565b5b600061106a85828601610e03565b925050602083013567ffffffffffffffff81111561108b5761108a610db5565b5b61109785828601610f30565b9150509250929050565b600081519050919050565b600082825260208201905092915050565b60005b838110156110db5780820151818401526020810190506110c0565b60008484015250505050565b60006110f2826110a1565b6110fc81856110ac565b935061110c8185602086016110bd565b61111581610e22565b840191505092915050565b600081519050919050565b600082825260208201905092915050565b6000819050602082019050919050565b61115581610dda565b82525050565b6000611167838361114c565b60208301905092915050565b6000602082019050919050565b600061118b82611120565b611195818561112b565b93506111a08361113c565b8060005b838110156111d15781516111b8888261115b565b97506111c383611173565b9250506001810190506111a4565b5085935050505092915050565b600081519050919050565b600082825260208201905092915050565b6000819050602082019050919050565b6000819050919050565b61121d8161120a565b82525050565b600061122f8383611214565b60208301905092915050565b6000602082019050919050565b6000611253826111de565b61125d81856111e9565b9350611268836111fa565b8060005b838110156112995781516112808882611223565b975061128b8361123b565b92505060018101905061126c565b5085935050505092915050565b600060808301600083015184820360008601526112c382826110e7565b915050602083015184820360208601526112dd82826110e7565b915050604083015184820360408601526112f78282611180565b915050606083015184820360608601526113118282611248565b9150508091505092915050565b6000602082019050818103600083015261133881846112a6565b905092915050565b600067ffffffffffffffff82111561135b5761135a610e33565b5b602082029050602081019050919050565b600080fd5b600061138461137f84611340565b610e93565b905080838252602082019050602084028301858111156113a7576113a661136c565b5b835b818110156113d057806113bc8882610e03565b8452602084019350506020810190506113a9565b5050509392505050565b600082601f8301126113ef576113ee610e18565b5b81356113ff848260208601611371565b91505092915050565b60008060006060848603121561142157611420610db0565b5b600084013567ffffffffffffffff81111561143f5761143e610db5565b5b61144b86828701610f30565b935050602084013567ffffffffffffffff81111561146c5761146b610db5565b5b61147886828701610f30565b925050604084013567ffffffffffffffff81111561149957611498610db5565b5b6114a5868287016113da565b9150509250925092565b600082825260208201905092915050565b60006114cb82611120565b6114d581856114af565b93506114e08361113c565b8060005b838110156115115781516114f8888261115b565b975061150383611173565b9250506001810190506114e4565b5085935050505092915050565b6000602082019050818103600083015261153881846114c0565b905092915050565b600081905092915050565b6000611556826110a1565b6115608185611540565b93506115708185602086016110bd565b80840191505092915050565b6000611588828461154b565b915081905092915050565b7f4e487b7100000000000000000000000000000000000000000000000000000000600052603260045260246000fd5b7f4e487b7100000000000000000000000000000000000000000000000000000000600052601160045260246000fd5b60006115fc8261120a565b91507fffffffffffffffffffffffffffffffffffffffffffffffffffffffffffffffff820361162e5761162d6115c2565b5b600182019050919050565b600082825260208201905092915050565b7f596f752063616e206f6e6c792063617374206f6e6520766f7465000000000000600082015250565b6000611680601a83611639565b915061168b8261164a565b602082019050919050565b600060208201905081810360008301526116af81611673565b9050919050565b7f596f7520617265206e6f7420617574686f726973656420746f2063617374207660008201527f6f74657300000000000000000000000000000000000000000000000000000000602082015250565b6000611712602483611639565b915061171d826116b6565b604082019050919050565b6000602082019050818103600083015261174181611705565b9050919050565b60006117538261120a565b915061175e8361120a565b9250828201905080821115611776576117756115c2565b5b92915050565b7f4f6e6c7920617574686f726973656420506f6c6c2043726561746f727320636160008201527f6e20706572666f726d207468697320616374696f6e0000000000000000000000602082015250565b60006117d8603583611639565b91506117e38261177c565b604082019050919050565b60006020820190508181036000830152611807816117cb565b9050919050565b7f4e487b7100000000000000000000000000000000000000000000000000000000600052602260045260246000fd5b6000600282049050600182168061185557607f821691505b6020821081036118685761186761180e565b5b50919050565b60008190508160005260206000209050919050565b60006020601f8301049050919050565b600082821b905092915050565b6000600883026118d07fffffffffffffffffffffffffffffffffffffffffffffffffffffffffffffffff82611893565b6118da8683611893565b95508019841693508086168417925050509392505050565b6000819050919050565b600061191761191261190d8461120a565b6118f2565b61120a565b9050919050565b6000819050919050565b611931836118fc565b61194561193d8261191e565b8484546118a0565b825550505050565b600090565b61195a61194d565b611965818484611928565b505050565b5b818110156119895761197e600082611952565b60018101905061196b565b5050565b601f8211156119ce5761199f8161186e565b6119a884611883565b810160208510156119b7578190505b6119cb6119c385611883565b83018261196a565b50505b505050565b600082821c905092915050565b60006119f1600019846008026119d3565b1980831691505092915050565b6000611a0a83836119e0565b9150826002028217905092915050565b611a23826110a1565b67ffffffffffffffff811115611a3c57611a3b610e33565b5b611a46825461183d565b611a5182828561198d565b600060209050601f831160018114611a845760008415611a72578287015190505b611a7c85826119fe565b865550611ae4565b601f198416611a928661186e565b60005b82811015611aba57848901518255600182019150602085019450602081019050611a95565b86831015611ad75784890151611ad3601f8916826119e0565b8355505b6001600288020188555050505b505050505050565b7f4f6e6c7920636f6e7472616374206f776e65722063616e20706572666f726d2060008201527f7468697320616374696f6e000000000000000000000000000000000000000000602082015250565b6000611b48602b83611639565b9150611b5382611aec565b604082019050919050565b60006020820190508181036000830152611b7781611b3b565b905091905056fea2646970667358221220603db633923dae69d6abdd0b4779e111483ae7f9ac50452bb2329a31a73bc6a764736f6c63430008130033",
  "linkReferences": {},
  "deployedLinkReferences": {}
}