{
  "contractName": "BankMechanism",
  "abi": [
    {
      "inputs": [],
      "stateMutability": "nonpayable",
      "type": "constructor"
    },
    {
      "inputs": [],
      "name": "openAccount",
      "outputs": [],
      "stateMutability": "payable",
      "type": "function"
    },
    {
      "inputs": [],
      "name": "deposit",
      "outputs": [
        {
          "internalType": "uint256",
          "name": "",
          "type": "uint256"
        }
      ],
      "stateMutability": "payable",
      "type": "function"
    },
    {
      "inputs": [
        {
          "internalType": "address",
          "name": "accountOwner",
          "type": "address"
        }
      ],
      "name": "checkBalanceByContractOwner",
      "outputs": [
        {
          "internalType": "uint256",
          "name": "",
          "type": "uint256"
        }
      ],
      "stateMutability": "view",
      "type": "function"
    },
    {
      "inputs": [],
      "name": "checkBalanceByAccountOwner",
      "outputs": [
        {
          "internalType": "uint256",
          "name": "",
          "type": "uint256"
        }
      ],
      "stateMutability": "view",
      "type": "function"
    },
    {
      "inputs": [
        {
          "internalType": "address payable",
          "name": "recipient",
          "type": "address"
        }
      ],
      "name": "transfer",
      "outputs": [
        {
          "internalType": "bool",
          "name": "",
          "type": "bool"
        }
      ],
      "stateMutability": "payable",
      "type": "function"
    }
  ],
  "bytecode": "0x608060405234801561000f575f80fd5b50335f806101000a81548173ffffffffffffffffffffffffffffffffffffffff021916908373ffffffffffffffffffffffffffffffffffffffff16021790555066071afd498d0000600381905550610ade8061006a5f395ff3fe608060405260043610610049575f3560e01c80631a6952301461004d578063292eb75d1461007d5780639ecf239c14610087578063ccf38e17146100c3578063d0e30db0146100ed575b5f80fd5b610067600480360381019061006291906106fe565b61010b565b6040516100749190610743565b60405180910390f35b610085610301565b005b348015610092575f80fd5b506100ad60048036038101906100a89190610797565b6103df565b6040516100ba91906107da565b60405180910390f35b3480156100ce575f80fd5b506100d76104b3565b6040516100e491906107da565b60405180910390f35b6100f5610580565b60405161010291906107da565b60405180910390f35b5f60025f3373ffffffffffffffffffffffffffffffffffffffff1673ffffffffffffffffffffffffffffffffffffffff1681526020019081526020015f205f9054906101000a900460ff16610195576040517f08c379a000000000000000000000000000000000000000000000000000000000815260040161018c90610873565b60405180910390fd5b3460015f3373ffffffffffffffffffffffffffffffffffffffff1673ffffffffffffffffffffffffffffffffffffffff1681526020019081526020015f205411610214576040517f08c379a000000000000000000000000000000000000000000000000000000000815260040161020b90610901565b60405180910390fd5b60015f3373ffffffffffffffffffffffffffffffffffffffff1673ffffffffffffffffffffffffffffffffffffffff1681526020019081526020015f205434116102f8578173ffffffffffffffffffffffffffffffffffffffff166108fc3490811502906040515f60405180830381858888f1935050505015801561029b573d5f803e3d5ffd5b503460015f3373ffffffffffffffffffffffffffffffffffffffff1673ffffffffffffffffffffffffffffffffffffffff1681526020019081526020015f205f8282546102e8919061094c565b92505081905550600190506102fc565b5f90505b919050565b600354341015610346576040517f08c379a000000000000000000000000000000000000000000000000000000000815260040161033d906109c9565b60405180910390fd5b3460015f3373ffffffffffffffffffffffffffffffffffffffff1673ffffffffffffffffffffffffffffffffffffffff1681526020019081526020015f2081905550600160025f3373ffffffffffffffffffffffffffffffffffffffff1673ffffffffffffffffffffffffffffffffffffffff1681526020019081526020015f205f6101000a81548160ff021916908315150217905550565b5f805f9054906101000a900473ffffffffffffffffffffffffffffffffffffffff1673ffffffffffffffffffffffffffffffffffffffff163373ffffffffffffffffffffffffffffffffffffffff161461046e576040517f08c379a000000000000000000000000000000000000000000000000000000000815260040161046590610a57565b60405180910390fd5b60015f8373ffffffffffffffffffffffffffffffffffffffff1673ffffffffffffffffffffffffffffffffffffffff1681526020019081526020015f20549050919050565b5f60025f3373ffffffffffffffffffffffffffffffffffffffff1673ffffffffffffffffffffffffffffffffffffffff1681526020019081526020015f205f9054906101000a900460ff1661053d576040517f08c379a000000000000000000000000000000000000000000000000000000000815260040161053490610873565b60405180910390fd5b60015f3373ffffffffffffffffffffffffffffffffffffffff1673ffffffffffffffffffffffffffffffffffffffff1681526020019081526020015f2054905090565b5f60025f3373ffffffffffffffffffffffffffffffffffffffff1673ffffffffffffffffffffffffffffffffffffffff1681526020019081526020015f205f9054906101000a900460ff1661060a576040517f08c379a000000000000000000000000000000000000000000000000000000000815260040161060190610873565b60405180910390fd5b3460015f3373ffffffffffffffffffffffffffffffffffffffff1673ffffffffffffffffffffffffffffffffffffffff1681526020019081526020015f205f8282546106569190610a75565b9250508190555060015f3373ffffffffffffffffffffffffffffffffffffffff1673ffffffffffffffffffffffffffffffffffffffff1681526020019081526020015f2054905090565b5f80fd5b5f73ffffffffffffffffffffffffffffffffffffffff82169050919050565b5f6106cd826106a4565b9050919050565b6106dd816106c3565b81146106e7575f80fd5b50565b5f813590506106f8816106d4565b92915050565b5f60208284031215610713576107126106a0565b5b5f610720848285016106ea565b91505092915050565b5f8115159050919050565b61073d81610729565b82525050565b5f6020820190506107565f830184610734565b92915050565b5f610766826106a4565b9050919050565b6107768161075c565b8114610780575f80fd5b50565b5f813590506107918161076d565b92915050565b5f602082840312156107ac576107ab6106a0565b5b5f6107b984828501610783565b91505092915050565b5f819050919050565b6107d4816107c2565b82525050565b5f6020820190506107ed5f8301846107cb565b92915050565b5f82825260208201905092915050565b7f4f6e6c7920617574686f7269736564206163636f756e74206f776e65727320635f8201527f616e2063616c6c20746869732066756e6374696f6e0000000000000000000000602082015250565b5f61085d6035836107f3565b915061086882610803565b604082019050919050565b5f6020820190508181035f83015261088a81610851565b9050919050565b7f496e73756666696369656e742062616c616e636520666f7220746869732074725f8201527f616e73616374696f6e0000000000000000000000000000000000000000000000602082015250565b5f6108eb6029836107f3565b91506108f682610891565b604082019050919050565b5f6020820190508181035f830152610918816108df565b9050919050565b7f4e487b71000000000000000000000000000000000000000000000000000000005f52601160045260245ffd5b5f610956826107c2565b9150610961836107c2565b92508282039050818111156109795761097861091f565b5b92915050565b7f496e73756666696369656e74206f70656e696e672062616c616e6365000000005f82015250565b5f6109b3601c836107f3565b91506109be8261097f565b602082019050919050565b5f6020820190508181035f8301526109e0816109a7565b9050919050565b7f4f6e6c7920746865206f776e65722063616e2063616c6c20746869732066756e5f8201527f6374696f6e000000000000000000000000000000000000000000000000000000602082015250565b5f610a416025836107f3565b9150610a4c826109e7565b604082019050919050565b5f6020820190508181035f830152610a6e81610a35565b9050919050565b5f610a7f826107c2565b9150610a8a836107c2565b9250828201905080821115610aa257610aa161091f565b5b9291505056fea26469706673582212200f6b3cac7ed748fb04e2378fd4b98bb82dcf3b3a1f03cef3f91b4d94da7e238264736f6c63430008150033",
  "immutableReferences": {},
  "source": "// SPDX-License-Identifier: MIT\r\npragma solidity ^0.8.0;\r\n\r\ncontract BankMechanism {\r\n    address private ownerAddress;\r\n    mapping(address => uint256) private bankAccounts;\r\n    mapping(address => bool) private authorisedAccountOwners;\r\n    uint256 private minimumAccountOpeningBalance;\r\n\r\n    constructor() {\r\n        ownerAddress = msg.sender;\r\n        minimumAccountOpeningBalance = 2 * 1e15 wei;\r\n    }\r\n\r\n    modifier onlyOwner {\r\n        require(msg.sender == ownerAddress, \"Only the owner can call this function\");\r\n        _;\r\n    }\r\n\r\n    modifier authorisedAddresses {\r\n        require(authorisedAccountOwners[msg.sender], \"Only authorised account owners can call this function\");\r\n        _;\r\n    }\r\n\r\n    modifier minimumAmountToOpenAccount {\r\n        require(msg.value >= minimumAccountOpeningBalance, \"Insufficient opening balance\");\r\n        _;\r\n    }\r\n\r\n    modifier balanceLessThanTransactionAmount {\r\n        require(bankAccounts[msg.sender] > msg.value, \"Insufficient balance for this transaction\");\r\n        _;\r\n    }\r\n\r\n    function openAccount() public payable minimumAmountToOpenAccount {\r\n        bankAccounts[msg.sender] = msg.value;\r\n        authorisedAccountOwners[msg.sender] = true;\r\n    }\r\n\r\n    function deposit() public payable authorisedAddresses returns (uint256) {\r\n        bankAccounts[msg.sender] += msg.value;\r\n        return bankAccounts[msg.sender];\r\n    }\r\n\r\n    function checkBalanceByContractOwner(address accountOwner) public view onlyOwner returns(uint256) {\r\n        return bankAccounts[accountOwner];\r\n    }\r\n\r\n    function checkBalanceByAccountOwner() public view authorisedAddresses returns (uint256) {\r\n        return bankAccounts[msg.sender];\r\n    }\r\n\r\n    function transfer(address payable recipient) public payable authorisedAddresses balanceLessThanTransactionAmount returns (bool) {\r\n        if (msg.value <= bankAccounts[msg.sender]) {\r\n            recipient.transfer(msg.value);\r\n            bankAccounts[msg.sender] -= msg.value;\r\n            return true;\r\n        }\r\n        return false;\r\n    }\r\n}\r\n",
  "sourcePath": "C:\\Users\\cynth\\Downloads\\Ayaversity Tasks\\Ayaversity-1-2-3\\contracts\\Bank_Mechanism.sol",
  "compiler": {
    "name": "solc",
    "version": "0.8.21+commit.d9974bed.Emscripten.clang"
  },
  "schemaVersion": "3.4.15",
  "updatedAt": "2023-08-29T20:22:59.581Z",
  "devdoc": {
    "kind": "dev",
    "methods": {},
    "version": 1
  },
  "userdoc": {
    "kind": "user",
    "methods": {},
    "version": 1
  }
}