{
  "contractName": "CrowdFund",
  "abi": [
    {
      "inputs": [
        {
          "internalType": "address",
          "name": "_token",
          "type": "address"
        }
      ],
      "stateMutability": "nonpayable",
      "type": "constructor"
    },
    {
      "anonymous": false,
      "inputs": [
        {
          "indexed": false,
          "internalType": "uint256",
          "name": "id",
          "type": "uint256"
        }
      ],
      "name": "Cancel",
      "type": "event"
    },
    {
      "anonymous": false,
      "inputs": [
        {
          "indexed": false,
          "internalType": "uint256",
          "name": "id",
          "type": "uint256"
        }
      ],
      "name": "Claim",
      "type": "event"
    },
    {
      "anonymous": false,
      "inputs": [
        {
          "indexed": false,
          "internalType": "uint256",
          "name": "id",
          "type": "uint256"
        },
        {
          "indexed": true,
          "internalType": "address",
          "name": "creator",
          "type": "address"
        },
        {
          "indexed": false,
          "internalType": "uint256",
          "name": "goal",
          "type": "uint256"
        },
        {
          "indexed": false,
          "internalType": "uint32",
          "name": "startAt",
          "type": "uint32"
        },
        {
          "indexed": false,
          "internalType": "uint32",
          "name": "endAt",
          "type": "uint32"
        }
      ],
      "name": "Launch",
      "type": "event"
    },
    {
      "anonymous": false,
      "inputs": [
        {
          "indexed": true,
          "internalType": "uint256",
          "name": "id",
          "type": "uint256"
        },
        {
          "indexed": true,
          "internalType": "address",
          "name": "caller",
          "type": "address"
        },
        {
          "indexed": false,
          "internalType": "uint256",
          "name": "amount",
          "type": "uint256"
        }
      ],
      "name": "Pledge",
      "type": "event"
    },
    {
      "anonymous": false,
      "inputs": [
        {
          "indexed": false,
          "internalType": "uint256",
          "name": "id",
          "type": "uint256"
        },
        {
          "indexed": true,
          "internalType": "address",
          "name": "caller",
          "type": "address"
        },
        {
          "indexed": false,
          "internalType": "uint256",
          "name": "amount",
          "type": "uint256"
        }
      ],
      "name": "Refund",
      "type": "event"
    },
    {
      "anonymous": false,
      "inputs": [
        {
          "indexed": true,
          "internalType": "uint256",
          "name": "id",
          "type": "uint256"
        },
        {
          "indexed": true,
          "internalType": "address",
          "name": "caller",
          "type": "address"
        },
        {
          "indexed": false,
          "internalType": "uint256",
          "name": "amount",
          "type": "uint256"
        }
      ],
      "name": "Unpledge",
      "type": "event"
    },
    {
      "inputs": [
        {
          "internalType": "uint256",
          "name": "",
          "type": "uint256"
        }
      ],
      "name": "campaigns",
      "outputs": [
        {
          "internalType": "address",
          "name": "creator",
          "type": "address"
        },
        {
          "internalType": "uint256",
          "name": "goal",
          "type": "uint256"
        },
        {
          "internalType": "uint256",
          "name": "pledged",
          "type": "uint256"
        },
        {
          "internalType": "uint32",
          "name": "startAt",
          "type": "uint32"
        },
        {
          "internalType": "uint32",
          "name": "endAt",
          "type": "uint32"
        },
        {
          "internalType": "bool",
          "name": "claimed",
          "type": "bool"
        }
      ],
      "stateMutability": "view",
      "type": "function"
    },
    {
      "inputs": [],
      "name": "count",
      "outputs": [
        {
          "internalType": "uint256",
          "name": "",
          "type": "uint256"
        }
      ],
      "stateMutability": "view",
      "type": "function"
    },
    {
      "inputs": [
        {
          "internalType": "uint256",
          "name": "",
          "type": "uint256"
        },
        {
          "internalType": "address",
          "name": "",
          "type": "address"
        }
      ],
      "name": "pledgedAmount",
      "outputs": [
        {
          "internalType": "uint256",
          "name": "",
          "type": "uint256"
        }
      ],
      "stateMutability": "view",
      "type": "function"
    },
    {
      "inputs": [],
      "name": "token",
      "outputs": [
        {
          "internalType": "contract IERC20",
          "name": "",
          "type": "address"
        }
      ],
      "stateMutability": "view",
      "type": "function"
    },
    {
      "inputs": [
        {
          "internalType": "uint256",
          "name": "_goal",
          "type": "uint256"
        },
        {
          "internalType": "uint32",
          "name": "_startAt",
          "type": "uint32"
        },
        {
          "internalType": "uint32",
          "name": "_endAt",
          "type": "uint32"
        }
      ],
      "name": "launch",
      "outputs": [],
      "stateMutability": "nonpayable",
      "type": "function"
    },
    {
      "inputs": [
        {
          "internalType": "uint256",
          "name": "_id",
          "type": "uint256"
        }
      ],
      "name": "cancel",
      "outputs": [],
      "stateMutability": "nonpayable",
      "type": "function"
    },
    {
      "inputs": [
        {
          "internalType": "uint256",
          "name": "_id",
          "type": "uint256"
        },
        {
          "internalType": "uint256",
          "name": "_amount",
          "type": "uint256"
        }
      ],
      "name": "pledge",
      "outputs": [],
      "stateMutability": "nonpayable",
      "type": "function"
    },
    {
      "inputs": [
        {
          "internalType": "uint256",
          "name": "_id",
          "type": "uint256"
        },
        {
          "internalType": "uint256",
          "name": "_amount",
          "type": "uint256"
        }
      ],
      "name": "unpledge",
      "outputs": [],
      "stateMutability": "nonpayable",
      "type": "function"
    },
    {
      "inputs": [
        {
          "internalType": "uint256",
          "name": "_id",
          "type": "uint256"
        }
      ],
      "name": "claim",
      "outputs": [],
      "stateMutability": "nonpayable",
      "type": "function"
    },
    {
      "inputs": [
        {
          "internalType": "uint256",
          "name": "_id",
          "type": "uint256"
        }
      ],
      "name": "refund",
      "outputs": [],
      "stateMutability": "nonpayable",
      "type": "function"
    }
  ],
  "bytecode": "0x60a060405234801562000010575f80fd5b5060405162001c2d38038062001c2d8339818101604052810190620000369190620000d6565b8073ffffffffffffffffffffffffffffffffffffffff1660808173ffffffffffffffffffffffffffffffffffffffff16815250505062000106565b5f80fd5b5f73ffffffffffffffffffffffffffffffffffffffff82169050919050565b5f620000a08262000075565b9050919050565b620000b28162000094565b8114620000bd575f80fd5b50565b5f81519050620000d081620000a7565b92915050565b5f60208284031215620000ee57620000ed62000071565b5b5f620000fd84828501620000c0565b91505092915050565b608051611af26200013b5f395f8181610497015281816109ce01528181610e2501528181610f3501526110a20152611af25ff3fe608060405234801561000f575f80fd5b506004361061009c575f3560e01c806340e58ee51161006457806340e58ee514610147578063711853ab14610163578063aa4fb63a1461017f578063fc0c546a146101af578063fde327be146101cd5761009c565b806306661abd146100a0578063141961bc146100be578063278ecde1146100f35780632c63f1461461010f578063379607f51461012b575b5f80fd5b6100a86101e9565b6040516100b591906111aa565b60405180910390f35b6100d860048036038101906100d391906111f1565b6101ee565b6040516100ea96959493929190611293565b60405180910390f35b61010d600480360381019061010891906111f1565b610271565b005b6101296004803603810190610124919061131c565b610586565b005b610145600480360381019061014091906111f1565b610812565b005b610161600480360381019061015c91906111f1565b610ac9565b005b61017d6004803603810190610178919061136c565b610d36565b005b610199600480360381019061019491906113d4565b610f13565b6040516101a691906111aa565b60405180910390f35b6101b7610f33565b6040516101c4919061146d565b60405180910390f35b6101e760048036038101906101e2919061136c565b610f57565b005b5f5481565b6001602052805f5260405f205f91509050805f015f9054906101000a900473ffffffffffffffffffffffffffffffffffffffff1690806001015490806002015490806003015f9054906101000a900463ffffffff16908060030160049054906101000a900463ffffffff16908060030160089054906101000a900460ff16905086565b5f60015f8381526020019081526020015f206040518060c00160405290815f82015f9054906101000a900473ffffffffffffffffffffffffffffffffffffffff1673ffffffffffffffffffffffffffffffffffffffff1673ffffffffffffffffffffffffffffffffffffffff1681526020016001820154815260200160028201548152602001600382015f9054906101000a900463ffffffff1663ffffffff1663ffffffff1681526020016003820160049054906101000a900463ffffffff1663ffffffff1663ffffffff1681526020016003820160089054906101000a900460ff1615151515815250509050806080015163ffffffff1642116103aa576040517f08c379a00000000000000000000000000000000000000000000000000000000081526004016103a1906114e0565b60405180910390fd5b80602001518160400151106103f4576040517f08c379a00000000000000000000000000000000000000000000000000000000081526004016103eb90611548565b60405180910390fd5b5f60025f8481526020019081526020015f205f3373ffffffffffffffffffffffffffffffffffffffff1673ffffffffffffffffffffffffffffffffffffffff1681526020019081526020015f205490505f60025f8581526020019081526020015f205f3373ffffffffffffffffffffffffffffffffffffffff1673ffffffffffffffffffffffffffffffffffffffff1681526020019081526020015f20819055507f000000000000000000000000000000000000000000000000000000000000000073ffffffffffffffffffffffffffffffffffffffff1663a9059cbb33836040518363ffffffff1660e01b81526004016104f0929190611566565b6020604051808303815f875af115801561050c573d5f803e3d5ffd5b505050506040513d601f19601f8201168201806040525081019061053091906115b7565b503373ffffffffffffffffffffffffffffffffffffffff167f21e12a7cad0da5928167e1084ea4d5fdf8d9af66657a2543a9ac76a0ca08147784836040516105799291906115e2565b60405180910390a2505050565b428263ffffffff1610156105cf576040517f08c379a00000000000000000000000000000000000000000000000000000000081526004016105c690611653565b60405180910390fd5b8163ffffffff168163ffffffff16101561061e576040517f08c379a0000000000000000000000000000000000000000000000000000000008152600401610615906116bb565b60405180910390fd5b6276a7004261062d9190611706565b8163ffffffff161115610675576040517f08c379a000000000000000000000000000000000000000000000000000000000815260040161066c90611783565b60405180910390fd5b60015f808282546106869190611706565b925050819055506040518060c001604052803373ffffffffffffffffffffffffffffffffffffffff1681526020018481526020015f81526020018363ffffffff1681526020018263ffffffff1681526020015f151581525060015f805481526020019081526020015f205f820151815f015f6101000a81548173ffffffffffffffffffffffffffffffffffffffff021916908373ffffffffffffffffffffffffffffffffffffffff16021790555060208201518160010155604082015181600201556060820151816003015f6101000a81548163ffffffff021916908363ffffffff16021790555060808201518160030160046101000a81548163ffffffff021916908363ffffffff16021790555060a08201518160030160086101000a81548160ff0219169083151502179055509050503373ffffffffffffffffffffffffffffffffffffffff167f0601cd0d650b473037e838a2696d41e654433d065b3f56b28d1d3302e44a304f5f5485858560405161080594939291906117a1565b60405180910390a2505050565b5f60015f8381526020019081526020015f2090503373ffffffffffffffffffffffffffffffffffffffff16815f015f9054906101000a900473ffffffffffffffffffffffffffffffffffffffff1673ffffffffffffffffffffffffffffffffffffffff16146108b6576040517f08c379a00000000000000000000000000000000000000000000000000000000081526004016108ad9061182e565b60405180910390fd5b8060030160049054906101000a900463ffffffff1663ffffffff164211610912576040517f08c379a0000000000000000000000000000000000000000000000000000000008152600401610909906114e0565b60405180910390fd5b80600101548160020154101561095d576040517f08c379a000000000000000000000000000000000000000000000000000000000815260040161095490611896565b60405180910390fd5b8060030160089054906101000a900460ff16156109af576040517f08c379a00000000000000000000000000000000000000000000000000000000081526004016109a6906118fe565b60405180910390fd5b60018160030160086101000a81548160ff0219169083151502179055507f000000000000000000000000000000000000000000000000000000000000000073ffffffffffffffffffffffffffffffffffffffff1663a9059cbb825f015f9054906101000a900473ffffffffffffffffffffffffffffffffffffffff1683600201546040518363ffffffff1660e01b8152600401610a4d929190611566565b6020604051808303815f875af1158015610a69573d5f803e3d5ffd5b505050506040513d601f19601f82011682018060405250810190610a8d91906115b7565b507f7bb2b3c10797baccb6f8c4791f1edd6ca2f0d028ee0eda64b01a9a57e3a653f782604051610abd91906111aa565b60405180910390a15050565b5f60015f8381526020019081526020015f206040518060c00160405290815f82015f9054906101000a900473ffffffffffffffffffffffffffffffffffffffff1673ffffffffffffffffffffffffffffffffffffffff1673ffffffffffffffffffffffffffffffffffffffff1681526020016001820154815260200160028201548152602001600382015f9054906101000a900463ffffffff1663ffffffff1663ffffffff1681526020016003820160049054906101000a900463ffffffff1663ffffffff1663ffffffff1681526020016003820160089054906101000a900460ff16151515158152505090503373ffffffffffffffffffffffffffffffffffffffff16815f015173ffffffffffffffffffffffffffffffffffffffff1614610c27576040517f08c379a0000000000000000000000000000000000000000000000000000000008152600401610c1e9061182e565b60405180910390fd5b806060015163ffffffff164210610c73576040517f08c379a0000000000000000000000000000000000000000000000000000000008152600401610c6a90611966565b60405180910390fd5b60015f8381526020019081526020015f205f8082015f6101000a81549073ffffffffffffffffffffffffffffffffffffffff0219169055600182015f9055600282015f9055600382015f6101000a81549063ffffffff02191690556003820160046101000a81549063ffffffff02191690556003820160086101000a81549060ff021916905550507f8bf30e7ff26833413be5f69e1d373744864d600b664204b4a2f9844a8eedb9ed82604051610d2a91906111aa565b60405180910390a15050565b5f60015f8481526020019081526020015f2090508060030160049054906101000a900463ffffffff1663ffffffff16421115610da7576040517f08c379a0000000000000000000000000000000000000000000000000000000008152600401610d9e906119ce565b60405180910390fd5b81816002015f828254610dba91906119ec565b925050819055508160025f8581526020019081526020015f205f3373ffffffffffffffffffffffffffffffffffffffff1673ffffffffffffffffffffffffffffffffffffffff1681526020019081526020015f205f828254610e1c91906119ec565b925050819055507f000000000000000000000000000000000000000000000000000000000000000073ffffffffffffffffffffffffffffffffffffffff1663a9059cbb33846040518363ffffffff1660e01b8152600401610e7e929190611566565b6020604051808303815f875af1158015610e9a573d5f803e3d5ffd5b505050506040513d601f19601f82011682018060405250810190610ebe91906115b7565b503373ffffffffffffffffffffffffffffffffffffffff16837f2eeeab891b26a214d1b25749f88a406bdea852bd8c9bfda977e0ef8114c180ba84604051610f0691906111aa565b60405180910390a3505050565b6002602052815f5260405f20602052805f5260405f205f91509150505481565b7f000000000000000000000000000000000000000000000000000000000000000081565b5f60015f8481526020019081526020015f209050806003015f9054906101000a900463ffffffff1663ffffffff16421015610fc7576040517f08c379a0000000000000000000000000000000000000000000000000000000008152600401610fbe90611a69565b60405180910390fd5b8060030160049054906101000a900463ffffffff1663ffffffff16421115611024576040517f08c379a000000000000000000000000000000000000000000000000000000000815260040161101b906119ce565b60405180910390fd5b81816002015f8282546110379190611706565b925050819055508160025f8581526020019081526020015f205f3373ffffffffffffffffffffffffffffffffffffffff1673ffffffffffffffffffffffffffffffffffffffff1681526020019081526020015f205f8282546110999190611706565b925050819055507f000000000000000000000000000000000000000000000000000000000000000073ffffffffffffffffffffffffffffffffffffffff166323b872dd3330856040518463ffffffff1660e01b81526004016110fd93929190611a87565b6020604051808303815f875af1158015611119573d5f803e3d5ffd5b505050506040513d601f19601f8201168201806040525081019061113d91906115b7565b503373ffffffffffffffffffffffffffffffffffffffff16837f06bdb975df800a73232998e71ed585d536222f1dfeaa622d7f62a23ada686c828460405161118591906111aa565b60405180910390a3505050565b5f819050919050565b6111a481611192565b82525050565b5f6020820190506111bd5f83018461119b565b92915050565b5f80fd5b6111d081611192565b81146111da575f80fd5b50565b5f813590506111eb816111c7565b92915050565b5f60208284031215611206576112056111c3565b5b5f611213848285016111dd565b91505092915050565b5f73ffffffffffffffffffffffffffffffffffffffff82169050919050565b5f6112458261121c565b9050919050565b6112558161123b565b82525050565b5f63ffffffff82169050919050565b6112738161125b565b82525050565b5f8115159050919050565b61128d81611279565b82525050565b5f60c0820190506112a65f83018961124c565b6112b3602083018861119b565b6112c0604083018761119b565b6112cd606083018661126a565b6112da608083018561126a565b6112e760a0830184611284565b979650505050505050565b6112fb8161125b565b8114611305575f80fd5b50565b5f81359050611316816112f2565b92915050565b5f805f60608486031215611333576113326111c3565b5b5f611340868287016111dd565b935050602061135186828701611308565b925050604061136286828701611308565b9150509250925092565b5f8060408385031215611382576113816111c3565b5b5f61138f858286016111dd565b92505060206113a0858286016111dd565b9150509250929050565b6113b38161123b565b81146113bd575f80fd5b50565b5f813590506113ce816113aa565b92915050565b5f80604083850312156113ea576113e96111c3565b5b5f6113f7858286016111dd565b9250506020611408858286016113c0565b9150509250929050565b5f819050919050565b5f61143561143061142b8461121c565b611412565b61121c565b9050919050565b5f6114468261141b565b9050919050565b5f6114578261143c565b9050919050565b6114678161144d565b82525050565b5f6020820190506114805f83018461145e565b92915050565b5f82825260208201905092915050565b7f6e6f7420656e64656400000000000000000000000000000000000000000000005f82015250565b5f6114ca600983611486565b91506114d582611496565b602082019050919050565b5f6020820190508181035f8301526114f7816114be565b9050919050565b7f706c6564676564203e3d20676f616c00000000000000000000000000000000005f82015250565b5f611532600f83611486565b915061153d826114fe565b602082019050919050565b5f6020820190508181035f83015261155f81611526565b9050919050565b5f6040820190506115795f83018561124c565b611586602083018461119b565b9392505050565b61159681611279565b81146115a0575f80fd5b50565b5f815190506115b18161158d565b92915050565b5f602082840312156115cc576115cb6111c3565b5b5f6115d9848285016115a3565b91505092915050565b5f6040820190506115f55f83018561119b565b611602602083018461119b565b9392505050565b7f7374617274206174203c206e6f770000000000000000000000000000000000005f82015250565b5f61163d600e83611486565b915061164882611609565b602082019050919050565b5f6020820190508181035f83015261166a81611631565b9050919050565b7f656e64206174203c2073746172742061740000000000000000000000000000005f82015250565b5f6116a5601183611486565b91506116b082611671565b602082019050919050565b5f6020820190508181035f8301526116d281611699565b9050919050565b7f4e487b71000000000000000000000000000000000000000000000000000000005f52601160045260245ffd5b5f61171082611192565b915061171b83611192565b9250828201905080821115611733576117326116d9565b5b92915050565b7f656e64206174203e206d6178206475726174696f6e00000000000000000000005f82015250565b5f61176d601583611486565b915061177882611739565b602082019050919050565b5f6020820190508181035f83015261179a81611761565b9050919050565b5f6080820190506117b45f83018761119b565b6117c1602083018661119b565b6117ce604083018561126a565b6117db606083018461126a565b95945050505050565b7f6e6f742063726561746f720000000000000000000000000000000000000000005f82015250565b5f611818600b83611486565b9150611823826117e4565b602082019050919050565b5f6020820190508181035f8301526118458161180c565b9050919050565b7f706c6564676564203c20676f616c0000000000000000000000000000000000005f82015250565b5f611880600e83611486565b915061188b8261184c565b602082019050919050565b5f6020820190508181035f8301526118ad81611874565b9050919050565b7f636c61696d6564000000000000000000000000000000000000000000000000005f82015250565b5f6118e8600783611486565b91506118f3826118b4565b602082019050919050565b5f6020820190508181035f830152611915816118dc565b9050919050565b7f73746172746564000000000000000000000000000000000000000000000000005f82015250565b5f611950600783611486565b915061195b8261191c565b602082019050919050565b5f6020820190508181035f83015261197d81611944565b9050919050565b7f656e6465640000000000000000000000000000000000000000000000000000005f82015250565b5f6119b8600583611486565b91506119c382611984565b602082019050919050565b5f6020820190508181035f8301526119e5816119ac565b9050919050565b5f6119f682611192565b9150611a0183611192565b9250828203905081811115611a1957611a186116d9565b5b92915050565b7f6e6f7420737461727465640000000000000000000000000000000000000000005f82015250565b5f611a53600b83611486565b9150611a5e82611a1f565b602082019050919050565b5f6020820190508181035f830152611a8081611a47565b9050919050565b5f606082019050611a9a5f83018661124c565b611aa7602083018561124c565b611ab4604083018461119b565b94935050505056fea26469706673582212202ca50b7b7eda421906ed7d0239182b1f341244b5af7457c6d10f161184f0232c64736f6c63430008150033",
  "immutableReferences": {
    "272": [
      {
        "length": 32,
        "start": 1175
      },
      {
        "length": 32,
        "start": 2510
      },
      {
        "length": 32,
        "start": 3621
      },
      {
        "length": 32,
        "start": 3893
      },
      {
        "length": 32,
        "start": 4258
      }
    ]
  },
  "source": "// SPDX-License-Identifier: MIT\r\npragma solidity ^0.8.20;\r\n\r\ninterface IERC20 {\r\n    function transfer(address, uint) external returns (bool);\r\n    function transferFrom(address, address, uint) external returns (bool);\r\n}\r\n\r\ncontract CrowdFund {\r\n    event Launch(uint id, address indexed creator, uint goal, uint32 startAt, uint32 endAt);\r\n    event Cancel(uint id);\r\n    event Pledge(uint indexed id, address indexed caller, uint amount);\r\n    event Unpledge(uint indexed id, address indexed caller, uint amount);\r\n    event Claim(uint id);\r\n    event Refund(uint id, address indexed caller, uint amount);\r\n\r\n    struct Campaign {\r\n        address creator;\r\n        uint goal;\r\n        uint pledged;\r\n        uint32 startAt;\r\n        uint32 endAt;\r\n        bool claimed;\r\n    }\r\n\r\n    IERC20 public immutable token;\r\n    uint public count;\r\n    mapping(uint => Campaign) public campaigns;\r\n    mapping(uint => mapping(address => uint)) public pledgedAmount;\r\n\r\n    constructor(address _token) {\r\n        token = IERC20(_token);\r\n    }\r\n\r\n    function launch(uint _goal, uint32 _startAt, uint32 _endAt) external {\r\n        require(_startAt >= block.timestamp, \"start at < now\");\r\n        require(_endAt >= _startAt, \"end at < start at\");\r\n        require(_endAt <= block.timestamp + 90 days, \"end at > max duration\");\r\n\r\n        count += 1;\r\n        campaigns[count] = Campaign({\r\n            creator: msg.sender,\r\n            goal: _goal,\r\n            pledged: 0,\r\n            startAt: _startAt,\r\n            endAt: _endAt,\r\n            claimed: false\r\n        });\r\n\r\n        emit Launch(count, msg.sender, _goal, _startAt, _endAt);\r\n    }\r\n\r\n    function cancel(uint _id) external {\r\n        Campaign memory campaign = campaigns[_id];\r\n        require(campaign.creator == msg.sender, \"not creator\");\r\n        require(block.timestamp < campaign.startAt, \"started\");\r\n\r\n        delete campaigns[_id];\r\n        emit Cancel(_id);\r\n    }\r\n\r\n    function pledge(uint _id, uint _amount) external {\r\n        Campaign storage campaign = campaigns[_id];\r\n        require(block.timestamp >= campaign.startAt, \"not started\");\r\n        require(block.timestamp <= campaign.endAt, \"ended\");\r\n\r\n        campaign.pledged += _amount;\r\n        pledgedAmount[_id][msg.sender] += _amount;\r\n        token.transferFrom(msg.sender, address(this), _amount);\r\n\r\n        emit Pledge(_id, msg.sender, _amount);\r\n    }\r\n\r\n    function unpledge(uint _id, uint _amount) external {\r\n        Campaign storage campaign = campaigns[_id];\r\n        require(block.timestamp <= campaign.endAt, \"ended\");\r\n\r\n        campaign.pledged -= _amount;\r\n        pledgedAmount[_id][msg.sender] -= _amount;\r\n        token.transfer(msg.sender, _amount);\r\n\r\n        emit Unpledge(_id, msg.sender, _amount);\r\n    }\r\n\r\n    function claim(uint _id) external {\r\n        Campaign storage campaign = campaigns[_id];\r\n        require(campaign.creator == msg.sender, \"not creator\");\r\n        require(block.timestamp > campaign.endAt, \"not ended\");\r\n        require(campaign.pledged >= campaign.goal, \"pledged < goal\");\r\n        require(!campaign.claimed, \"claimed\");\r\n\r\n        campaign.claimed = true;\r\n        token.transfer(campaign.creator, campaign.pledged);\r\n\r\n        emit Claim(_id);\r\n    }\r\n\r\n    function refund(uint _id) external {\r\n        Campaign memory campaign = campaigns[_id];\r\n        require(block.timestamp > campaign.endAt, \"not ended\");\r\n        require(campaign.pledged < campaign.goal, \"pledged >= goal\");\r\n\r\n        uint bal = pledgedAmount[_id][msg.sender];\r\n        pledgedAmount[_id][msg.sender] = 0;\r\n        token.transfer(msg.sender, bal);\r\n\r\n        emit Refund(_id, msg.sender, bal);\r\n    }\r\n}",
  "sourcePath": "C:\\Users\\cynth\\Downloads\\Ayaversity Tasks\\Ayaversity-1-2-3\\contracts\\Crowd_Fund_System.sol",
  "compiler": {
    "name": "solc",
    "version": "0.8.21+commit.d9974bed.Emscripten.clang"
  },
  "schemaVersion": "3.4.15",
  "updatedAt": "2023-08-29T20:22:59.594Z",
  "devdoc": {
    "kind": "dev",
    "methods": {},
    "version": 1
  },
  "userdoc": {
    "kind": "user",
    "methods": {},
    "version": 1
  }
}