{
  "contractName": "PollContract",
  "abi": [
    {
      "inputs": [],
      "stateMutability": "nonpayable",
      "type": "constructor"
    },
    {
      "inputs": [
        {
          "internalType": "address",
          "name": "pollCreator",
          "type": "address"
        },
        {
          "internalType": "bool",
          "name": "authorisation",
          "type": "bool"
        }
      ],
      "name": "authorisePollCreator",
      "outputs": [],
      "stateMutability": "nonpayable",
      "type": "function"
    },
    {
      "inputs": [
        {
          "internalType": "address",
          "name": "voter",
          "type": "address"
        },
        {
          "internalType": "bool",
          "name": "authorisation",
          "type": "bool"
        }
      ],
      "name": "authorisePollVoters",
      "outputs": [],
      "stateMutability": "nonpayable",
      "type": "function"
    },
    {
      "inputs": [
        {
          "internalType": "address",
          "name": "pollCreator",
          "type": "address"
        },
        {
          "internalType": "string",
          "name": "pollName",
          "type": "string"
        }
      ],
      "name": "getPollByCreator",
      "outputs": [
        {
          "components": [
            {
              "internalType": "string",
              "name": "name",
              "type": "string"
            },
            {
              "internalType": "string",
              "name": "description",
              "type": "string"
            },
            {
              "internalType": "address[]",
              "name": "candidates",
              "type": "address[]"
            },
            {
              "internalType": "uint256[]",
              "name": "votes",
              "type": "uint256[]"
            }
          ],
          "internalType": "struct PollContract.PollInfo",
          "name": "",
          "type": "tuple"
        }
      ],
      "stateMutability": "view",
      "type": "function"
    },
    {
      "inputs": [
        {
          "internalType": "string",
          "name": "pollName",
          "type": "string"
        },
        {
          "internalType": "string",
          "name": "description",
          "type": "string"
        },
        {
          "internalType": "address[]",
          "name": "candidates",
          "type": "address[]"
        }
      ],
      "name": "createPoll",
      "outputs": [],
      "stateMutability": "nonpayable",
      "type": "function"
    },
    {
      "inputs": [
        {
          "internalType": "address",
          "name": "pollOwner",
          "type": "address"
        },
        {
          "internalType": "string",
          "name": "pollName",
          "type": "string"
        }
      ],
      "name": "listCandidatesInAPoll",
      "outputs": [
        {
          "internalType": "address[]",
          "name": "",
          "type": "address[]"
        }
      ],
      "stateMutability": "view",
      "type": "function"
    },
    {
      "inputs": [
        {
          "internalType": "address",
          "name": "candidate",
          "type": "address"
        },
        {
          "internalType": "address",
          "name": "pollOwner",
          "type": "address"
        },
        {
          "internalType": "string",
          "name": "pollName",
          "type": "string"
        }
      ],
      "name": "voteCandidateInPoll",
      "outputs": [],
      "stateMutability": "nonpayable",
      "type": "function"
    }
  ],
  "bytecode": "0x608060405234801561000f575f80fd5b50335f806101000a81548173ffffffffffffffffffffffffffffffffffffffff021916908373ffffffffffffffffffffffffffffffffffffffff160217905550611afa8061005c5f395ff3fe608060405234801561000f575f80fd5b5060043610610060575f3560e01c80637095f81014610064578063734ca9ac14610080578063a710aa601461009c578063b33b7da0146100cc578063e55af17d146100e8578063f6a33fb214610118575b5f80fd5b61007e60048036038101906100799190610f02565b610134565b005b61009a60048036038101906100959190610fa3565b6104ab565b005b6100b660048036038101906100b19190610fe1565b61058c565b6040516100c391906112a1565b60405180910390f35b6100e660048036038101906100e19190611385565b610778565b005b61010260048036038101906100fd9190610fe1565b61093a565b60405161010f9190611495565b60405180910390f35b610132600480360381019061012d9190610fa3565b610b39565b005b81815f60035f8473ffffffffffffffffffffffffffffffffffffffff1673ffffffffffffffffffffffffffffffffffffffff1681526020019081526020015f208260405161018291906114ef565b908152602001604051809103902090505f805b826003018054905081101561022c573373ffffffffffffffffffffffffffffffffffffffff168360030182815481106101d1576101d0611505565b5b905f5260205f20015f9054906101000a900473ffffffffffffffffffffffffffffffffffffffff1673ffffffffffffffffffffffffffffffffffffffff160361021957600191505b80806102249061155f565b915050610195565b50801561026e576040517f08c379a000000000000000000000000000000000000000000000000000000000815260040161026590611600565b60405180910390fd5b60025f3373ffffffffffffffffffffffffffffffffffffffff1673ffffffffffffffffffffffffffffffffffffffff1681526020019081526020015f205f9054906101000a900460ff166102f7576040517f08c379a00000000000000000000000000000000000000000000000000000000081526004016102ee9061168e565b60405180910390fd5b5f60035f8873ffffffffffffffffffffffffffffffffffffffff1673ffffffffffffffffffffffffffffffffffffffff1681526020019081526020015f208660405161034391906114ef565b908152602001604051809103902090505f805b82600101805490508110156103f0578973ffffffffffffffffffffffffffffffffffffffff1683600101828154811061039257610391611505565b5b905f5260205f20015f9054906101000a900473ffffffffffffffffffffffffffffffffffffffff1673ffffffffffffffffffffffffffffffffffffffff16036103dd578091506103f0565b80806103e89061155f565b915050610356565b50600182600201828154811061040957610408611505565b5b905f5260205f20015461041c91906116ac565b82600201828154811061043257610431611505565b5b905f5260205f2001819055508160030133908060018154018082558091505060019003905f5260205f20015f9091909190916101000a81548173ffffffffffffffffffffffffffffffffffffffff021916908373ffffffffffffffffffffffffffffffffffffffff160217905550505050505050505050565b60015f3373ffffffffffffffffffffffffffffffffffffffff1673ffffffffffffffffffffffffffffffffffffffff1681526020019081526020015f205f9054906101000a900460ff16610534576040517f08c379a000000000000000000000000000000000000000000000000000000000815260040161052b9061174f565b60405180910390fd5b8060025f8473ffffffffffffffffffffffffffffffffffffffff1673ffffffffffffffffffffffffffffffffffffffff1681526020019081526020015f205f6101000a81548160ff0219169083151502179055505050565b610594610c1e565b5f60035f8573ffffffffffffffffffffffffffffffffffffffff1673ffffffffffffffffffffffffffffffffffffffff1681526020019081526020015f20836040516105e091906114ef565b908152602001604051809103902090506040518060800160405280848152602001825f01805461060f9061179a565b80601f016020809104026020016040519081016040528092919081815260200182805461063b9061179a565b80156106865780601f1061065d57610100808354040283529160200191610686565b820191905f5260205f20905b81548152906001019060200180831161066957829003601f168201915b505050505081526020018260010180548060200260200160405190810160405280929190818152602001828054801561071157602002820191905f5260205f20905b815f9054906101000a900473ffffffffffffffffffffffffffffffffffffffff1673ffffffffffffffffffffffffffffffffffffffff16815260200190600101908083116106c8575b505050505081526020018260020180548060200260200160405190810160405280929190818152602001828054801561076757602002820191905f5260205f20905b815481526020019060010190808311610753575b505050505081525091505092915050565b60015f3373ffffffffffffffffffffffffffffffffffffffff1673ffffffffffffffffffffffffffffffffffffffff1681526020019081526020015f205f9054906101000a900460ff16610801576040517f08c379a00000000000000000000000000000000000000000000000000000000081526004016107f89061174f565b60405180910390fd5b610809610c46565b82815f0181905250818160200181905250815167ffffffffffffffff81111561083557610834610dde565b5b6040519080825280602002602001820160405280156108635781602001602082028036833780820191505090505b5081604001819052508060035f3373ffffffffffffffffffffffffffffffffffffffff1673ffffffffffffffffffffffffffffffffffffffff1681526020019081526020015f20856040516108b891906114ef565b90815260200160405180910390205f820151815f0190816108d99190611967565b5060208201518160010190805190602001906108f6929190610c6e565b506040820151816002019080519060200190610913929190610cf5565b506060820151816003019080519060200190610930929190610c6e565b5090505050505050565b606060015f3373ffffffffffffffffffffffffffffffffffffffff1673ffffffffffffffffffffffffffffffffffffffff1681526020019081526020015f205f9054906101000a900460ff166109c5576040517f08c379a00000000000000000000000000000000000000000000000000000000081526004016109bc9061174f565b60405180910390fd5b60025f3373ffffffffffffffffffffffffffffffffffffffff1673ffffffffffffffffffffffffffffffffffffffff1681526020019081526020015f205f9054906101000a900460ff16610a4e576040517f08c379a0000000000000000000000000000000000000000000000000000000008152600401610a459061168e565b60405180910390fd5b5f60035f8573ffffffffffffffffffffffffffffffffffffffff1673ffffffffffffffffffffffffffffffffffffffff1681526020019081526020015f2083604051610a9a91906114ef565b9081526020016040518091039020905080600101805480602002602001604051908101604052809291908181526020018280548015610b2b57602002820191905f5260205f20905b815f9054906101000a900473ffffffffffffffffffffffffffffffffffffffff1673ffffffffffffffffffffffffffffffffffffffff1681526020019060010190808311610ae2575b505050505091505092915050565b5f8054906101000a900473ffffffffffffffffffffffffffffffffffffffff1673ffffffffffffffffffffffffffffffffffffffff163373ffffffffffffffffffffffffffffffffffffffff1614610bc6576040517f08c379a0000000000000000000000000000000000000000000000000000000008152600401610bbd90611aa6565b60405180910390fd5b8060015f8473ffffffffffffffffffffffffffffffffffffffff1673ffffffffffffffffffffffffffffffffffffffff1681526020019081526020015f205f6101000a81548160ff0219169083151502179055505050565b6040518060800160405280606081526020016060815260200160608152602001606081525090565b6040518060800160405280606081526020016060815260200160608152602001606081525090565b828054828255905f5260205f20908101928215610ce4579160200282015b82811115610ce3578251825f6101000a81548173ffffffffffffffffffffffffffffffffffffffff021916908373ffffffffffffffffffffffffffffffffffffffff16021790555091602001919060010190610c8c565b5b509050610cf19190610d40565b5090565b828054828255905f5260205f20908101928215610d2f579160200282015b82811115610d2e578251825591602001919060010190610d13565b5b509050610d3c9190610d40565b5090565b5b80821115610d57575f815f905550600101610d41565b5090565b5f604051905090565b5f80fd5b5f80fd5b5f73ffffffffffffffffffffffffffffffffffffffff82169050919050565b5f610d9582610d6c565b9050919050565b610da581610d8b565b8114610daf575f80fd5b50565b5f81359050610dc081610d9c565b92915050565b5f80fd5b5f80fd5b5f601f19601f8301169050919050565b7f4e487b71000000000000000000000000000000000000000000000000000000005f52604160045260245ffd5b610e1482610dce565b810181811067ffffffffffffffff82111715610e3357610e32610dde565b5b80604052505050565b5f610e45610d5b565b9050610e518282610e0b565b919050565b5f67ffffffffffffffff821115610e7057610e6f610dde565b5b610e7982610dce565b9050602081019050919050565b828183375f83830152505050565b5f610ea6610ea184610e56565b610e3c565b905082815260208101848484011115610ec257610ec1610dca565b5b610ecd848285610e86565b509392505050565b5f82601f830112610ee957610ee8610dc6565b5b8135610ef9848260208601610e94565b91505092915050565b5f805f60608486031215610f1957610f18610d64565b5b5f610f2686828701610db2565b9350506020610f3786828701610db2565b925050604084013567ffffffffffffffff811115610f5857610f57610d68565b5b610f6486828701610ed5565b9150509250925092565b5f8115159050919050565b610f8281610f6e565b8114610f8c575f80fd5b50565b5f81359050610f9d81610f79565b92915050565b5f8060408385031215610fb957610fb8610d64565b5b5f610fc685828601610db2565b9250506020610fd785828601610f8f565b9150509250929050565b5f8060408385031215610ff757610ff6610d64565b5b5f61100485828601610db2565b925050602083013567ffffffffffffffff81111561102557611024610d68565b5b61103185828601610ed5565b9150509250929050565b5f81519050919050565b5f82825260208201905092915050565b5f5b83811015611072578082015181840152602081019050611057565b5f8484015250505050565b5f6110878261103b565b6110918185611045565b93506110a1818560208601611055565b6110aa81610dce565b840191505092915050565b5f81519050919050565b5f82825260208201905092915050565b5f819050602082019050919050565b6110e781610d8b565b82525050565b5f6110f883836110de565b60208301905092915050565b5f602082019050919050565b5f61111a826110b5565b61112481856110bf565b935061112f836110cf565b805f5b8381101561115f57815161114688826110ed565b975061115183611104565b925050600181019050611132565b5085935050505092915050565b5f81519050919050565b5f82825260208201905092915050565b5f819050602082019050919050565b5f819050919050565b6111a781611195565b82525050565b5f6111b8838361119e565b60208301905092915050565b5f602082019050919050565b5f6111da8261116c565b6111e48185611176565b93506111ef83611186565b805f5b8381101561121f57815161120688826111ad565b9750611211836111c4565b9250506001810190506111f2565b5085935050505092915050565b5f608083015f8301518482035f860152611246828261107d565b91505060208301518482036020860152611260828261107d565b9150506040830151848203604086015261127a8282611110565b9150506060830151848203606086015261129482826111d0565b9150508091505092915050565b5f6020820190508181035f8301526112b9818461122c565b905092915050565b5f67ffffffffffffffff8211156112db576112da610dde565b5b602082029050602081019050919050565b5f80fd5b5f6113026112fd846112c1565b610e3c565b90508083825260208201905060208402830185811115611325576113246112ec565b5b835b8181101561134e578061133a8882610db2565b845260208401935050602081019050611327565b5050509392505050565b5f82601f83011261136c5761136b610dc6565b5b813561137c8482602086016112f0565b91505092915050565b5f805f6060848603121561139c5761139b610d64565b5b5f84013567ffffffffffffffff8111156113b9576113b8610d68565b5b6113c586828701610ed5565b935050602084013567ffffffffffffffff8111156113e6576113e5610d68565b5b6113f286828701610ed5565b925050604084013567ffffffffffffffff81111561141357611412610d68565b5b61141f86828701611358565b9150509250925092565b5f82825260208201905092915050565b5f611443826110b5565b61144d8185611429565b9350611458836110cf565b805f5b8381101561148857815161146f88826110ed565b975061147a83611104565b92505060018101905061145b565b5085935050505092915050565b5f6020820190508181035f8301526114ad8184611439565b905092915050565b5f81905092915050565b5f6114c98261103b565b6114d381856114b5565b93506114e3818560208601611055565b80840191505092915050565b5f6114fa82846114bf565b915081905092915050565b7f4e487b71000000000000000000000000000000000000000000000000000000005f52603260045260245ffd5b7f4e487b71000000000000000000000000000000000000000000000000000000005f52601160045260245ffd5b5f61156982611195565b91507fffffffffffffffffffffffffffffffffffffffffffffffffffffffffffffffff820361159b5761159a611532565b5b600182019050919050565b5f82825260208201905092915050565b7f596f752063616e206f6e6c792063617374206f6e6520766f74650000000000005f82015250565b5f6115ea601a836115a6565b91506115f5826115b6565b602082019050919050565b5f6020820190508181035f830152611617816115de565b9050919050565b7f596f7520617265206e6f7420617574686f726973656420746f206361737420765f8201527f6f74657300000000000000000000000000000000000000000000000000000000602082015250565b5f6116786024836115a6565b91506116838261161e565b604082019050919050565b5f6020820190508181035f8301526116a58161166c565b9050919050565b5f6116b682611195565b91506116c183611195565b92508282019050808211156116d9576116d8611532565b5b92915050565b7f4f6e6c7920617574686f726973656420506f6c6c2043726561746f72732063615f8201527f6e20706572666f726d207468697320616374696f6e0000000000000000000000602082015250565b5f6117396035836115a6565b9150611744826116df565b604082019050919050565b5f6020820190508181035f8301526117668161172d565b9050919050565b7f4e487b71000000000000000000000000000000000000000000000000000000005f52602260045260245ffd5b5f60028204905060018216806117b157607f821691505b6020821081036117c4576117c361176d565b5b50919050565b5f819050815f5260205f209050919050565b5f6020601f8301049050919050565b5f82821b905092915050565b5f600883026118267fffffffffffffffffffffffffffffffffffffffffffffffffffffffffffffffff826117eb565b61183086836117eb565b95508019841693508086168417925050509392505050565b5f819050919050565b5f61186b61186661186184611195565b611848565b611195565b9050919050565b5f819050919050565b61188483611851565b61189861189082611872565b8484546117f7565b825550505050565b5f90565b6118ac6118a0565b6118b781848461187b565b505050565b5b818110156118da576118cf5f826118a4565b6001810190506118bd565b5050565b601f82111561191f576118f0816117ca565b6118f9846117dc565b81016020851015611908578190505b61191c611914856117dc565b8301826118bc565b50505b505050565b5f82821c905092915050565b5f61193f5f1984600802611924565b1980831691505092915050565b5f6119578383611930565b9150826002028217905092915050565b6119708261103b565b67ffffffffffffffff81111561198957611988610dde565b5b611993825461179a565b61199e8282856118de565b5f60209050601f8311600181146119cf575f84156119bd578287015190505b6119c7858261194c565b865550611a2e565b601f1984166119dd866117ca565b5f5b82811015611a04578489015182556001820191506020850194506020810190506119df565b86831015611a215784890151611a1d601f891682611930565b8355505b6001600288020188555050505b505050505050565b7f4f6e6c7920636f6e7472616374206f776e65722063616e20706572666f726d205f8201527f7468697320616374696f6e000000000000000000000000000000000000000000602082015250565b5f611a90602b836115a6565b9150611a9b82611a36565b604082019050919050565b5f6020820190508181035f830152611abd81611a84565b905091905056fea2646970667358221220df22ab5953a9b7e6989b0efc8c490d635fd4105f7dc991dbc553a70b6e558ebc64736f6c63430008150033",
  "immutableReferences": {},
  "source": "// SPDX-License-Identifier: MIT\r\npragma solidity ^0.8.0;\r\n\r\ncontract PollContract {\r\n    address private ownerAddress;\r\n    mapping(address => bool) private pollCreators;\r\n    mapping(address => bool) private authorisedVoters;\r\n    mapping(address => mapping(string => Poll)) private pollMapping;\r\n\r\n    struct Poll {\r\n        string description;\r\n        address[] candidates;\r\n        uint256[] candidatesVote;\r\n        address[] voters;\r\n    }\r\n\r\n    struct PollInfo {\r\n        string name;\r\n        string description;\r\n        address[] candidates;\r\n        uint256[] votes;\r\n    }\r\n\r\n    constructor() {\r\n        ownerAddress = msg.sender;\r\n    }\r\n\r\n    modifier onlyOwner {\r\n        require(msg.sender == ownerAddress, \"Only contract owner can perform this action\");\r\n        _;\r\n    }\r\n\r\n    modifier authorisedPollCreator {\r\n        require(pollCreators[msg.sender], \"Only authorised Poll Creators can perform this action\");\r\n        _;\r\n    }\r\n\r\n    modifier hasCastedVote(address pollOwner, string memory pollName) {\r\n        Poll storage poll = pollMapping[pollOwner][pollName];\r\n        bool voteCasted = false;\r\n\r\n        for (uint256 count = 0; count < poll.voters.length; count++) {\r\n            if (poll.voters[count] == msg.sender) {\r\n                voteCasted = true;\r\n            }\r\n        }\r\n\r\n        require(!voteCasted, \"You can only cast one vote\");\r\n        _;\r\n    }\r\n\r\n    modifier isAllowedToVote {\r\n        require(authorisedVoters[msg.sender], \"You are not authorised to cast votes\");\r\n        _;\r\n    }\r\n\r\n    function authorisePollCreator(address pollCreator, bool authorisation) external onlyOwner {\r\n        pollCreators[pollCreator] = authorisation;\r\n    }\r\n\r\n    function authorisePollVoters(address voter, bool authorisation) external authorisedPollCreator {\r\n        authorisedVoters[voter] = authorisation;\r\n    }\r\n\r\n    function getPollByCreator(address pollCreator, string memory pollName) public view returns (PollInfo memory) {\r\n        Poll storage poll = pollMapping[pollCreator][pollName];\r\n        return PollInfo(pollName, poll.description, poll.candidates, poll.candidatesVote);\r\n    }\r\n\r\n    function createPoll(string memory pollName, string memory description, address[] memory candidates) external authorisedPollCreator {\r\n        Poll memory poll;\r\n        poll.description = description;\r\n        poll.candidates = candidates;\r\n        poll.candidatesVote = new uint256[](candidates.length);\r\n        pollMapping[msg.sender][pollName] = poll;\r\n    }\r\n\r\n    function listCandidatesInAPoll(address pollOwner, string memory pollName) public view authorisedPollCreator isAllowedToVote returns (address[] memory) {\r\n        Poll storage poll = pollMapping[pollOwner][pollName];\r\n        return poll.candidates;\r\n    }\r\n\r\n    function voteCandidateInPoll(address candidate, address pollOwner, string memory pollName) public hasCastedVote(pollOwner, pollName) isAllowedToVote {\r\n        Poll storage poll = pollMapping[pollOwner][pollName];\r\n        uint256 candidateIndex = 0;\r\n\r\n        for (uint256 count = 0; count < poll.candidates.length; count++) {\r\n            if (poll.candidates[count] == candidate) {\r\n                candidateIndex = count;\r\n                break;\r\n            }\r\n        }\r\n\r\n        poll.candidatesVote[candidateIndex] = poll.candidatesVote[candidateIndex] + 1;\r\n        poll.voters.push(msg.sender);\r\n    }\r\n}\r\n",
  "sourcePath": "C:\\Users\\cynth\\Downloads\\Ayaversity Tasks\\Ayaversity-1-2-3\\contracts\\Poll_Contract.sol",
  "compiler": {
    "name": "solc",
    "version": "0.8.21+commit.d9974bed.Emscripten.clang"
  },
  "schemaVersion": "3.4.15",
  "updatedAt": "2023-08-29T20:22:59.626Z",
  "devdoc": {
    "kind": "dev",
    "methods": {},
    "version": 1
  },
  "userdoc": {
    "kind": "user",
    "methods": {},
    "version": 1
  }
}